{
  "_format": "hh-sol-artifact-1",
  "contractName": "ZakatToken",
  "contractAddress": "0x45350C3f3A91eB8F96531387B8f2073599ef8C80",
  "sourceName": "contracts/ZakatToken.sol",
  "abi": [
    {
      "inputs": [
        {
          "internalType": "string",
          "name": "name",
          "type": "string"
        },
        {
          "internalType": "string",
          "name": "symbol",
          "type": "string"
        },
        {
          "internalType": "address",
          "name": "_defaultZakatAddress",
          "type": "address"
        }
      ],
      "stateMutability": "nonpayable",
      "type": "constructor"
    },
    {
      "inputs": [],
      "name": "InvalidShortString",
      "type": "error"
    },
    {
      "inputs": [
        {
          "internalType": "string",
          "name": "str",
          "type": "string"
        }
      ],
      "name": "StringTooLong",
      "type": "error"
    },
    {
      "anonymous": false,
      "inputs": [
        {
          "indexed": true,
          "internalType": "address",
          "name": "owner",
          "type": "address"
        },
        {
          "indexed": true,
          "internalType": "address",
          "name": "spender",
          "type": "address"
        },
        {
          "indexed": false,
          "internalType": "uint256",
          "name": "value",
          "type": "uint256"
        }
      ],
      "name": "Approval",
      "type": "event"
    },
    {
      "anonymous": false,
      "inputs": [],
      "name": "EIP712DomainChanged",
      "type": "event"
    },
    {
      "anonymous": false,
      "inputs": [
        {
          "indexed": true,
          "internalType": "address",
          "name": "previousOwner",
          "type": "address"
        },
        {
          "indexed": true,
          "internalType": "address",
          "name": "newOwner",
          "type": "address"
        }
      ],
      "name": "OwnershipTransferred",
      "type": "event"
    },
    {
      "anonymous": false,
      "inputs": [
        {
          "indexed": true,
          "internalType": "address",
          "name": "from",
          "type": "address"
        },
        {
          "indexed": true,
          "internalType": "address",
          "name": "to",
          "type": "address"
        },
        {
          "indexed": false,
          "internalType": "uint256",
          "name": "value",
          "type": "uint256"
        }
      ],
      "name": "Transfer",
      "type": "event"
    },
    {
      "inputs": [],
      "name": "DOMAIN_SEPARATOR",
      "outputs": [
        {
          "internalType": "bytes32",
          "name": "",
          "type": "bytes32"
        }
      ],
      "stateMutability": "view",
      "type": "function"
    },
    {
      "inputs": [
        {
          "internalType": "address",
          "name": "owner",
          "type": "address"
        },
        {
          "internalType": "address",
          "name": "spender",
          "type": "address"
        }
      ],
      "name": "allowance",
      "outputs": [
        {
          "internalType": "uint256",
          "name": "",
          "type": "uint256"
        }
      ],
      "stateMutability": "view",
      "type": "function"
    },
    {
      "inputs": [
        {
          "internalType": "address",
          "name": "spender",
          "type": "address"
        },
        {
          "internalType": "uint256",
          "name": "amount",
          "type": "uint256"
        }
      ],
      "name": "approve",
      "outputs": [
        {
          "internalType": "bool",
          "name": "",
          "type": "bool"
        }
      ],
      "stateMutability": "nonpayable",
      "type": "function"
    },
    {
      "inputs": [
        {
          "internalType": "address",
          "name": "account",
          "type": "address"
        }
      ],
      "name": "balanceOf",
      "outputs": [
        {
          "internalType": "uint256",
          "name": "",
          "type": "uint256"
        }
      ],
      "stateMutability": "view",
      "type": "function"
    },
    {
      "inputs": [
        {
          "internalType": "uint256",
          "name": "_amount",
          "type": "uint256"
        }
      ],
      "name": "calculateZakat",
      "outputs": [
        {
          "internalType": "uint256",
          "name": "",
          "type": "uint256"
        }
      ],
      "stateMutability": "view",
      "type": "function"
    },
    {
      "inputs": [],
      "name": "decimals",
      "outputs": [
        {
          "internalType": "uint8",
          "name": "",
          "type": "uint8"
        }
      ],
      "stateMutability": "view",
      "type": "function"
    },
    {
      "inputs": [
        {
          "internalType": "address",
          "name": "spender",
          "type": "address"
        },
        {
          "internalType": "uint256",
          "name": "subtractedValue",
          "type": "uint256"
        }
      ],
      "name": "decreaseAllowance",
      "outputs": [
        {
          "internalType": "bool",
          "name": "",
          "type": "bool"
        }
      ],
      "stateMutability": "nonpayable",
      "type": "function"
    },
    {
      "inputs": [],
      "name": "defaultZakatAddress",
      "outputs": [
        {
          "internalType": "address",
          "name": "",
          "type": "address"
        }
      ],
      "stateMutability": "view",
      "type": "function"
    },
    {
      "inputs": [],
      "name": "distributedZakat",
      "outputs": [
        {
          "internalType": "uint256",
          "name": "",
          "type": "uint256"
        }
      ],
      "stateMutability": "view",
      "type": "function"
    },
    {
      "inputs": [],
      "name": "eip712Domain",
      "outputs": [
        {
          "internalType": "bytes1",
          "name": "fields",
          "type": "bytes1"
        },
        {
          "internalType": "string",
          "name": "name",
          "type": "string"
        },
        {
          "internalType": "string",
          "name": "version",
          "type": "string"
        },
        {
          "internalType": "uint256",
          "name": "chainId",
          "type": "uint256"
        },
        {
          "internalType": "address",
          "name": "verifyingContract",
          "type": "address"
        },
        {
          "internalType": "bytes32",
          "name": "salt",
          "type": "bytes32"
        },
        {
          "internalType": "uint256[]",
          "name": "extensions",
          "type": "uint256[]"
        }
      ],
      "stateMutability": "view",
      "type": "function"
    },
    {
      "inputs": [
        {
          "internalType": "address",
          "name": "_user",
          "type": "address"
        }
      ],
      "name": "getUserZakatRecipient",
      "outputs": [
        {
          "internalType": "address",
          "name": "",
          "type": "address"
        }
      ],
      "stateMutability": "view",
      "type": "function"
    },
    {
      "inputs": [
        {
          "internalType": "address",
          "name": "spender",
          "type": "address"
        },
        {
          "internalType": "uint256",
          "name": "addedValue",
          "type": "uint256"
        }
      ],
      "name": "increaseAllowance",
      "outputs": [
        {
          "internalType": "bool",
          "name": "",
          "type": "bool"
        }
      ],
      "stateMutability": "nonpayable",
      "type": "function"
    },
    {
      "inputs": [],
      "name": "name",
      "outputs": [
        {
          "internalType": "string",
          "name": "",
          "type": "string"
        }
      ],
      "stateMutability": "view",
      "type": "function"
    },
    {
      "inputs": [
        {
          "internalType": "address",
          "name": "owner",
          "type": "address"
        }
      ],
      "name": "nonces",
      "outputs": [
        {
          "internalType": "uint256",
          "name": "",
          "type": "uint256"
        }
      ],
      "stateMutability": "view",
      "type": "function"
    },
    {
      "inputs": [],
      "name": "owner",
      "outputs": [
        {
          "internalType": "address",
          "name": "",
          "type": "address"
        }
      ],
      "stateMutability": "view",
      "type": "function"
    },
    {
      "inputs": [
        {
          "internalType": "address",
          "name": "owner",
          "type": "address"
        },
        {
          "internalType": "address",
          "name": "spender",
          "type": "address"
        },
        {
          "internalType": "uint256",
          "name": "value",
          "type": "uint256"
        },
        {
          "internalType": "uint256",
          "name": "deadline",
          "type": "uint256"
        },
        {
          "internalType": "uint8",
          "name": "v",
          "type": "uint8"
        },
        {
          "internalType": "bytes32",
          "name": "r",
          "type": "bytes32"
        },
        {
          "internalType": "bytes32",
          "name": "s",
          "type": "bytes32"
        }
      ],
      "name": "permit",
      "outputs": [],
      "stateMutability": "nonpayable",
      "type": "function"
    },
    {
      "inputs": [],
      "name": "renounceOwnership",
      "outputs": [],
      "stateMutability": "nonpayable",
      "type": "function"
    },
    {
      "inputs": [
        {
          "internalType": "address",
          "name": "_newDefaultZakatAddress",
          "type": "address"
        }
      ],
      "name": "setDefaultZakatAddress",
      "outputs": [],
      "stateMutability": "nonpayable",
      "type": "function"
    },
    {
      "inputs": [
        {
          "internalType": "address",
          "name": "_zakatRecipient",
          "type": "address"
        }
      ],
      "name": "setUserZakatRecipient",
      "outputs": [],
      "stateMutability": "nonpayable",
      "type": "function"
    },
    {
      "inputs": [
        {
          "internalType": "uint256",
          "name": "_newPercentage",
          "type": "uint256"
        }
      ],
      "name": "setZakatPercentage",
      "outputs": [],
      "stateMutability": "nonpayable",
      "type": "function"
    },
    {
      "inputs": [],
      "name": "symbol",
      "outputs": [
        {
          "internalType": "string",
          "name": "",
          "type": "string"
        }
      ],
      "stateMutability": "view",
      "type": "function"
    },
    {
      "inputs": [],
      "name": "totalSupply",
      "outputs": [
        {
          "internalType": "uint256",
          "name": "",
          "type": "uint256"
        }
      ],
      "stateMutability": "view",
      "type": "function"
    },
    {
      "inputs": [
        {
          "internalType": "address",
          "name": "recipient",
          "type": "address"
        },
        {
          "internalType": "uint256",
          "name": "amount",
          "type": "uint256"
        }
      ],
      "name": "transfer",
      "outputs": [
        {
          "internalType": "bool",
          "name": "",
          "type": "bool"
        }
      ],
      "stateMutability": "nonpayable",
      "type": "function"
    },
    {
      "inputs": [
        {
          "internalType": "address",
          "name": "sender",
          "type": "address"
        },
        {
          "internalType": "address",
          "name": "recipient",
          "type": "address"
        },
        {
          "internalType": "uint256",
          "name": "amount",
          "type": "uint256"
        }
      ],
      "name": "transferFrom",
      "outputs": [
        {
          "internalType": "bool",
          "name": "",
          "type": "bool"
        }
      ],
      "stateMutability": "nonpayable",
      "type": "function"
    },
    {
      "inputs": [
        {
          "internalType": "address",
          "name": "newOwner",
          "type": "address"
        }
      ],
      "name": "transferOwnership",
      "outputs": [],
      "stateMutability": "nonpayable",
      "type": "function"
    },
    {
      "inputs": [],
      "name": "zakatPercentage",
      "outputs": [
        {
          "internalType": "uint256",
          "name": "",
          "type": "uint256"
        }
      ],
      "stateMutability": "view",
      "type": "function"
    }
  ],
  "bytecode": "0x6101606040526019600a553480156200001757600080fd5b5060405162001db038038062001db08339810160408190526200003a9162000445565b6040805180820190915260018152603160f81b6020820152839081908185600362000066838262000560565b50600462000075828262000560565b506200008791508390506005620001e2565b6101205262000098816006620001e2565b61014052815160208084019190912060e052815190820120610100524660a0526200012660e05161010051604080517f8b73c3c69bb8fe3d512ecc4cf759cc79239f7b179b0ffacaa9a75d522b39400f60208201529081019290925260608201524660808201523060a082015260009060c00160405160208183030381529060405280519060200120905090565b60805250503060c052506200013b336200021b565b6001600160a01b038116620001a95760405162461bcd60e51b815260206004820152602960248201527f5a616b617420616464726573732063616e6e6f7420626520746865207a65726f6044820152681030b2323932b9b99760b91b60648201526084015b60405180910390fd5b600c80546001600160a01b0319166001600160a01b038316179055620001d933683635c9adc5dea000006200026d565b505050620006a8565b60006020835110156200020257620001fa8362000330565b905062000215565b816200020f848262000560565b5060ff90505b92915050565b600980546001600160a01b038381166001600160a01b0319831681179093556040519116919082907f8be0079c531659141344cd1fd0a4f28419497f9722a3daafe3b4186f6b6457e090600090a35050565b6001600160a01b038216620002c55760405162461bcd60e51b815260206004820152601f60248201527f45524332303a206d696e7420746f20746865207a65726f2061646472657373006044820152606401620001a0565b8060026000828254620002d991906200062c565b90915550506001600160a01b038216600081815260208181526040808320805486019055518481527fddf252ad1be2c89b69c2b068fc378daa952ba7f163c4a11628f55a4df523b3ef910160405180910390a35050565b600080829050601f815111156200035e578260405163305a27a960e01b8152600401620001a091906200064e565b80516200036b8262000683565b179392505050565b505050565b634e487b7160e01b600052604160045260246000fd5b60005b83811015620003ab57818101518382015260200162000391565b50506000910152565b600082601f830112620003c657600080fd5b81516001600160401b0380821115620003e357620003e362000378565b604051601f8301601f19908116603f011681019082821181831017156200040e576200040e62000378565b816040528381528660208588010111156200042857600080fd5b6200043b8460208301602089016200038e565b9695505050505050565b6000806000606084860312156200045b57600080fd5b83516001600160401b03808211156200047357600080fd5b6200048187838801620003b4565b945060208601519150808211156200049857600080fd5b50620004a786828701620003b4565b604086015190935090506001600160a01b0381168114620004c757600080fd5b809150509250925092565b600181811c90821680620004e757607f821691505b6020821081036200050857634e487b7160e01b600052602260045260246000fd5b50919050565b601f8211156200037357600081815260208120601f850160051c81016020861015620005375750805b601f850160051c820191505b81811015620005585782815560010162000543565b505050505050565b81516001600160401b038111156200057c576200057c62000378565b62000594816200058d8454620004d2565b846200050e565b602080601f831160018114620005cc5760008415620005b35750858301515b600019600386901b1c1916600185901b17855562000558565b600085815260208120601f198616915b82811015620005fd57888601518255948401946001909101908401620005dc565b50858210156200061c5787850151600019600388901b60f8161c191681555b5050505050600190811b01905550565b808201808211156200021557634e487b7160e01b600052601160045260246000fd5b60208152600082518060208401526200066f8160408501602087016200038e565b601f01601f19169190910160400192915050565b80516020808301519190811015620005085760001960209190910360031b1b16919050565b60805160a05160c05160e0516101005161012051610140516116ad620007036000396000610622015260006105f701526000610d0101526000610cd901526000610c3401526000610c5e01526000610c8801526116ad6000f3fe608060405234801561001057600080fd5b506004361061018e5760003560e01c806384b0196e116100de578063a563a66011610097578063d505accf11610071578063d505accf1461035a578063dc096a671461036d578063dd62ed3e14610376578063f2fde38b1461038957600080fd5b8063a563a66014610321578063a9059cbb14610334578063b56f55f71461034757600080fd5b806384b0196e146102b457806388f2f03a146102cf5780638da5cb5b146102e257806395d89b41146102f357806397ede6e8146102fb578063a457c2d71461030e57600080fd5b8063313ce5671161014b5780634349a23c116101255780634349a23c1461024557806370a0823114610270578063715018a6146102995780637ecebe00146102a157600080fd5b8063313ce5671461021b5780633644e5151461022a578063395093511461023257600080fd5b806306fdde0314610193578063095ea7b3146101b157806311bc6218146101d457806315dc294f146101eb57806318160ddd1461020057806323b872dd14610208575b600080fd5b61019b61039c565b6040516101a891906113b3565b60405180910390f35b6101c46101bf3660046113e2565b61042e565b60405190151581526020016101a8565b6101dd600a5481565b6040519081526020016101a8565b6101fe6101f936600461140c565b610448565b005b6002546101dd565b6101c4610216366004611427565b6104e7565b604051601281526020016101a8565b6101dd61054a565b6101c46102403660046113e2565b610559565b61025861025336600461140c565b61057b565b6040516001600160a01b0390911681526020016101a8565b6101dd61027e36600461140c565b6001600160a01b031660009081526020819052604090205490565b6101fe6105b7565b6101dd6102af36600461140c565b6105cb565b6102bc6105e9565b6040516101a89796959493929190611463565b600c54610258906001600160a01b031681565b6009546001600160a01b0316610258565b61019b610672565b6101dd6103093660046114f9565b610681565b6101c461031c3660046113e2565b61069e565b6101fe61032f3660046114f9565b610724565b6101c46103423660046113e2565b61078f565b6101fe61035536600461140c565b6107ef565b6101fe610368366004611512565b610888565b6101dd600b5481565b6101dd610384366004611585565b6109ec565b6101fe61039736600461140c565b610a17565b6060600380546103ab906115b8565b80601f01602080910402602001604051908101604052809291908181526020018280546103d7906115b8565b80156104245780601f106103f957610100808354040283529160200191610424565b820191906000526020600020905b81548152906001019060200180831161040757829003601f168201915b5050505050905090565b60003361043c818585610a90565b60019150505b92915050565b610450610bb4565b6001600160a01b0381166104c55760405162461bcd60e51b815260206004820152603160248201527f44656661756c74205a616b617420616464726573732063616e6e6f74206265206044820152703a3432903d32b9379030b2323932b9b99760791b60648201526084015b60405180910390fd5b600c80546001600160a01b0319166001600160a01b0392909216919091179055565b6000806104f383610681565b905060006105018285611602565b9050600061050e8761057b565b905061051b878285610c0e565b5082600b600082825461052e9190611615565b9091555061053f9050878784610c0e565b979650505050505050565b6000610554610c27565b905090565b60003361043c81858561056c83836109ec565b6105769190611615565b610a90565b6001600160a01b038082166000908152600d6020526040812054909116806105ae57600c546001600160a01b03166105b0565b805b9392505050565b6105bf610bb4565b6105c96000610d52565b565b6001600160a01b038116600090815260076020526040812054610442565b60006060808280808361061d7f00000000000000000000000000000000000000000000000000000000000000006005610da4565b6106487f00000000000000000000000000000000000000000000000000000000000000006006610da4565b60408051600080825260208201909252600f60f81b9b939a50919850469750309650945092509050565b6060600480546103ab906115b8565b60006103e8600a54836106949190611628565b610442919061163f565b600033816106ac82866109ec565b90508381101561070c5760405162461bcd60e51b815260206004820152602560248201527f45524332303a2064656372656173656420616c6c6f77616e63652062656c6f77604482015264207a65726f60d81b60648201526084016104bc565b6107198286868403610a90565b506001949350505050565b61072c610bb4565b6103e881111561078a5760405162461bcd60e51b8152602060048201526024808201527f50657263656e746167652063616e6e6f74206265206d6f7265207468616e20316044820152631818129760e11b60648201526084016104bc565b600a55565b60008061079b83610681565b905060006107a98285611602565b905060006107b63361057b565b90506107c28184610e4f565b5082600b60008282546107d59190611615565b909155506107e590508683610e4f565b9695505050505050565b6001600160a01b0381166108595760405162461bcd60e51b815260206004820152602b60248201527f5a616b617420726563697069656e742063616e6e6f7420626520746865207a6560448201526a39379030b2323932b9b99760a91b60648201526084016104bc565b336000908152600d6020526040902080546001600160a01b0319166001600160a01b0392909216919091179055565b834211156108d85760405162461bcd60e51b815260206004820152601d60248201527f45524332305065726d69743a206578706972656420646561646c696e6500000060448201526064016104bc565b60007f6e71edae12b1b97f4d1f60370fef10105fa2faae0126114a169c64845d6126c98888886109078c610e5d565b6040805160208101969096526001600160a01b0394851690860152929091166060840152608083015260a082015260c0810186905260e001604051602081830303815290604052805190602001209050600061096282610e85565b9050600061097282878787610eb2565b9050896001600160a01b0316816001600160a01b0316146109d55760405162461bcd60e51b815260206004820152601e60248201527f45524332305065726d69743a20696e76616c6964207369676e6174757265000060448201526064016104bc565b6109e08a8a8a610a90565b50505050505050505050565b6001600160a01b03918216600090815260016020908152604080832093909416825291909152205490565b610a1f610bb4565b6001600160a01b038116610a845760405162461bcd60e51b815260206004820152602660248201527f4f776e61626c653a206e6577206f776e657220697320746865207a65726f206160448201526564647265737360d01b60648201526084016104bc565b610a8d81610d52565b50565b6001600160a01b038316610af25760405162461bcd60e51b8152602060048201526024808201527f45524332303a20617070726f76652066726f6d20746865207a65726f206164646044820152637265737360e01b60648201526084016104bc565b6001600160a01b038216610b535760405162461bcd60e51b815260206004820152602260248201527f45524332303a20617070726f766520746f20746865207a65726f206164647265604482015261737360f01b60648201526084016104bc565b6001600160a01b0383811660008181526001602090815260408083209487168084529482529182902085905590518481527f8c5be1e5ebec7d5bd14f71427d1e84f3dd0314c0f7b2291e5b200ac8c7c3b925910160405180910390a3505050565b6009546001600160a01b031633146105c95760405162461bcd60e51b815260206004820181905260248201527f4f776e61626c653a2063616c6c6572206973206e6f7420746865206f776e657260448201526064016104bc565b600033610c1c858285610eda565b610719858585610f54565b6000306001600160a01b037f000000000000000000000000000000000000000000000000000000000000000016148015610c8057507f000000000000000000000000000000000000000000000000000000000000000046145b15610caa57507f000000000000000000000000000000000000000000000000000000000000000090565b610554604080517f8b73c3c69bb8fe3d512ecc4cf759cc79239f7b179b0ffacaa9a75d522b39400f60208201527f0000000000000000000000000000000000000000000000000000000000000000918101919091527f000000000000000000000000000000000000000000000000000000000000000060608201524660808201523060a082015260009060c00160405160208183030381529060405280519060200120905090565b600980546001600160a01b038381166001600160a01b0319831681179093556040519116919082907f8be0079c531659141344cd1fd0a4f28419497f9722a3daafe3b4186f6b6457e090600090a35050565b606060ff8314610dbe57610db7836110f8565b9050610442565b818054610dca906115b8565b80601f0160208091040260200160405190810160405280929190818152602001828054610df6906115b8565b8015610e435780601f10610e1857610100808354040283529160200191610e43565b820191906000526020600020905b815481529060010190602001808311610e2657829003601f168201915b50505050509050610442565b60003361043c818585610f54565b6001600160a01b03811660009081526007602052604090208054600181018255905b50919050565b6000610442610e92610c27565b8360405161190160f01b8152600281019290925260228201526042902090565b6000806000610ec387878787611137565b91509150610ed0816111fb565b5095945050505050565b6000610ee684846109ec565b90506000198114610f4e5781811015610f415760405162461bcd60e51b815260206004820152601d60248201527f45524332303a20696e73756666696369656e7420616c6c6f77616e636500000060448201526064016104bc565b610f4e8484848403610a90565b50505050565b6001600160a01b038316610fb85760405162461bcd60e51b815260206004820152602560248201527f45524332303a207472616e736665722066726f6d20746865207a65726f206164604482015264647265737360d81b60648201526084016104bc565b6001600160a01b03821661101a5760405162461bcd60e51b815260206004820152602360248201527f45524332303a207472616e7366657220746f20746865207a65726f206164647260448201526265737360e81b60648201526084016104bc565b6001600160a01b038316600090815260208190526040902054818110156110925760405162461bcd60e51b815260206004820152602660248201527f45524332303a207472616e7366657220616d6f756e7420657863656564732062604482015265616c616e636560d01b60648201526084016104bc565b6001600160a01b03848116600081815260208181526040808320878703905593871680835291849020805487019055925185815290927fddf252ad1be2c89b69c2b068fc378daa952ba7f163c4a11628f55a4df523b3ef910160405180910390a3610f4e565b6060600061110583611345565b604080516020808252818301909252919250600091906020820181803683375050509182525060208101929092525090565b6000807f7fffffffffffffffffffffffffffffff5d576e7357a4501ddfe92f46681b20a083111561116e57506000905060036111f2565b6040805160008082526020820180845289905260ff881692820192909252606081018690526080810185905260019060a0016020604051602081039080840390855afa1580156111c2573d6000803e3d6000fd5b5050604051601f1901519150506001600160a01b0381166111eb576000600192509250506111f2565b9150600090505b94509492505050565b600081600481111561120f5761120f611661565b036112175750565b600181600481111561122b5761122b611661565b036112785760405162461bcd60e51b815260206004820152601860248201527f45434453413a20696e76616c6964207369676e6174757265000000000000000060448201526064016104bc565b600281600481111561128c5761128c611661565b036112d95760405162461bcd60e51b815260206004820152601f60248201527f45434453413a20696e76616c6964207369676e6174757265206c656e6774680060448201526064016104bc565b60038160048111156112ed576112ed611661565b03610a8d5760405162461bcd60e51b815260206004820152602260248201527f45434453413a20696e76616c6964207369676e6174757265202773272076616c604482015261756560f01b60648201526084016104bc565b600060ff8216601f8111156105ae57604051632cd44ac360e21b815260040160405180910390fd5b6000815180845260005b8181101561139357602081850181015186830182015201611377565b506000602082860101526020601f19601f83011685010191505092915050565b6020815260006105b0602083018461136d565b80356001600160a01b03811681146113dd57600080fd5b919050565b600080604083850312156113f557600080fd5b6113fe836113c6565b946020939093013593505050565b60006020828403121561141e57600080fd5b6105b0826113c6565b60008060006060848603121561143c57600080fd5b611445846113c6565b9250611453602085016113c6565b9150604084013590509250925092565b60ff60f81b881681526000602060e08184015261148360e084018a61136d565b8381036040850152611495818a61136d565b606085018990526001600160a01b038816608086015260a0850187905284810360c0860152855180825283870192509083019060005b818110156114e7578351835292840192918401916001016114cb565b50909c9b505050505050505050505050565b60006020828403121561150b57600080fd5b5035919050565b600080600080600080600060e0888a03121561152d57600080fd5b611536886113c6565b9650611544602089016113c6565b95506040880135945060608801359350608088013560ff8116811461156857600080fd5b9699959850939692959460a0840135945060c09093013592915050565b6000806040838503121561159857600080fd5b6115a1836113c6565b91506115af602084016113c6565b90509250929050565b600181811c908216806115cc57607f821691505b602082108103610e7f57634e487b7160e01b600052602260045260246000fd5b634e487b7160e01b600052601160045260246000fd5b81810381811115610442576104426115ec565b80820180821115610442576104426115ec565b8082028115828204841417610442576104426115ec565b60008261165c57634e487b7160e01b600052601260045260246000fd5b500490565b634e487b7160e01b600052602160045260246000fdfea26469706673582212208200e14fd2b3f6f673f08c540242f8d877c12a27ee7656529beb44679b59ceb964736f6c63430008130033",
  "linkReferences": {},
  "deployedLinkReferences": {}
}